:03000000020A1AD7
:0C0A1A00787FE4F6D8FD75811F02094BBF
:100A0600003F0006005B004F0066006D007D00079A
:040A1600007F006FEE
:10094B0078087C007D007BFF7A0A79067E007F1495
:10095B001208D0E4F51CF51DF51EF51FC290C291CF
:10096B0030901E1209E2C3E51D9463E51C94004010
:10097B0008751C00751D638008051DE51D700205BB
:10098B001C3091181209E2E51D451C600AE51D1586
:10099B001D7009151C8005E4F51CF51DAE1CAF1D63
:1009AB007C007D0A1208F68C1E8D1FD2B0C2B1E5F9
:1009BB001F1209D9AE1CAF1D7C007D0A1208F68EE2
:0E09CB001E8F1FC2B0D2B1EF1209D902096B04
:0D09D90025E02408F808E6F5A07F147E0054
:1009E600E4FDFCC3ED9FEC9E5015E4FAFB0BBB0047
:0F09F600010ABA03F8BBE8F50DBD00010C80E45F
:010A050022CE
:10080000E709F608DFFA8046E709F208DFFA803EDA
:1008100088828C83E709F0A3DFFA8032E309F608C7
:10082000DFFA8078E309F208DFFA807088828C832F
:10083000E309F0A3DFFA806489828A83E0A3F608E3
:10084000DFFA805889828A83E0A3F208DFFA804CBD
:1008500080D280FA80C680D4806980F28033801094
:1008600080A680EA809A80A880DA80E280CA8033FD
:1008700089828A83ECFAE493A3C8C582C8CCC58375
:10088000CCF0A3C8C582C8CCC583CCDFE9DEE78045
:100890000D89828A83E493A3F608DFF9ECFAA9F0C4
:1008A000EDFB2289828A83ECFAE0A3C8C582C8CC1A
:1008B000C583CCF0A3C8C582C8CCC583CCDFEADE33
:1008C000E880DB89828A83E493A3F208DFF980CC95
:1008D00088F0EF60010E4E60C388F0ED2402B4048E
:1008E0000050B9F582EB2402B4040050AF23234535
:0608F00082239008507302
:1008F600BC000BBE0029EF8DF084FFADF022E4CCE6
:10090600F875F008EF2FFFEE33FEEC33FCEE9DECAE
:10091600984005FCEE9DFE0FD5F0E9E4CEFD22EDF4
:10092600F8F5F0EE8420D21CFEADF075F008EF2F3E
:10093600FFED33FD4007985006D5F0F222C398FD2F
:050946000FD5F0EA22CC
:00000001FF
