:03000000020CA748
:0C0CA700787FE4F6D8FD758128020CEE81
:100B650053797374656D204973204C6F636B6564AD
:100B750000456E7465722050617373636F64650020
:100B850050617373636F64653A0050617373636F8B
:100B95006465204D61746368656400547279204111
:100BA5006761696E004F70656E696E672054686590
:100BB50020446F6F7200436C6F73696E67205468D1
:100BC5006520446F6F7200546F6F206D616E7920E0
:100BD500617474656D70747300456E746572206D13
:100BE5006173746572206B6579004D61737465720C
:100BF500204B65793A0057656C636F6D65204D61D3
:050C050073746572002C
:100E2A00060E31323334350006082A3030303000AD
:1009B400020A76E4F5A07590FF120DAE7BFF7A0B68
:1009C4007965120D337FC0120DF57BFF7A0B7976B2
:1009D400120D337F647E00120D617F01120DF57FCD
:1009E40002120DF57BFF7A0B7985120D337FC0124D
:1009F4000DF5E4F51EF51F120E3B8F227414251F0E
:100A0400F8A622AF22120E077F647E00120D610544
:100A14001FE51F7002051EC39405E51E64809480C3
:100A240040D57F01120DF57F02120DF5E521640218
:100A340045207005120AA68039780E7C007D007B63
:100A4400007A007914120997EF702F7BFF7A0B79E3
:100A54008F120D337FC87E00120D61120DD27F58A4
:100A64007E02120D61120D877F01120DF57F0212B5
:100A74000DF5E4F520F5210209B77BFF7A0B79A087
:100A8400120D33120E190521E521700205207FC8CD
:100A94007E00120D617F01120DF57F02120DF50229
:020AA40009B790
:100E1900E4FFFEC2970FBF00010EEF640A4E70F3A4
:010E290022A6
:100DD2007F01120DF57F02120DF57BFF7A0B79AAC6
:100DE200120D33D2B0C2B17F907E01120D61C2B03A
:030DF200C2B12269
:100D87007F01120DF57F02120DF57BFF7A0B79BB00
:100D9700120D33D2B0C2B1C2B0D2B17F907E011270
:070DA7000D61C2B0C2B122D0
:100AA600E4F523F5247F01120DF57F02120DF57B87
:100AB600FF7A0B79CC120D337FC0120DF57BFF7ACE
:100AC6000B79DE120D337F647E00120D617F0112F9
:100AD6000DF57F02120DF57BFF7A0B79EF120D33C0
:100AE6007FC0120DF5C3E5249405E5236480948048
:100AF6005022120E3B8F2574192524F8A625AF2502
:100B0600120E077F647E00120D610524E52470D560
:100B1600052380D178087C007D007B007A00791956
:100B2600120997EF70387F01120DF57F02120DF54D
:100B36007BFF7A0B79FB120D337FC87E00120D61A5
:100B4600120DD27F587E02120D61120D877F01129F
:0E0B56000DF57F02120DF57F647E00120D6119
:010B6400226E
:0A0E3B007F61BF6105120C0A80F808
:010E4500228A
:100C0A00D296D295D294C293C292C291C290C29005
:100C1A00D293D292D291209406120D5D7F31222076
:100C2A009506120D5D7F3222209606120D5D7F33E6
:100C3A0022C291D293D292D290209406120D5D7F55
:100C4A003422209506120D5D7F3522209606120D5C
:100C5A005D7F3622C292D293D291D290209406120C
:100C6A000D5D7F3722209506120D5D7F3822209672
:100C7A0006120D5D7F3922C293D292D291D2902070
:100C8A009406120D5D7F2A22209506120D5D7F3093
:0D0C9A0022209606120D5D7F23227F61222D
:100D33008B268A278928AB26AA27A928120800FF11
:100D43006017120E077F0A7E00120D6174012528B9
:0A0D5300F528E43527F52780DD229E
:100DAE007F38120DF5120D5D7F01120DF5120D5DDE
:100DBE007F80120DF5120D5D7F0E120DF57F027EF6
:040DCE0000020D61B1
:040D5D007F027E0093
:100D6100E4FDFCC3ED9FEE6480F8EC6480985015BF
:100D7100E4FBFA0BBB00010ABA04F8BBFBF50DBD9D
:050D810000010C80DE02
:010D8600224A
:100DF5008FA0C2B4C2B5D2B67F017E00120D61C20A
:020E0500B62213
:100E07008FA0D2B4C2B5D2B67F017E00120D61C2E7
:020E1700B62201
:100CB3000209B4E493A3F8E493A34003F68001F29A
:100CC30008DFF48029E493A3F85407240CC8C33342
:100CD300C4540F4420C8834004F456800146F6DF11
:100CE300E4800B0102040810204080900E2AE47E69
:100CF300019360BCA3FF543F30E509541FFEE49306
:100D0300A360010ECF54C025E060A840B8E493A3CC
:100D1300FAE493A3F8E493A3C8C582C8CAC583CAF7
:100D2300F0A3C8C582C8CAC583CADFE9DEE780BEAF
:010E3A0000B7
:10080000BB010689828A83E0225002E722BBFE02F6
:09081000E32289828A83E4932229
:10081900E3F5F009E208B5F06D606B80F3E3F5F0FC
:1008290009E608B5F060605E80F387F009E608B56F
:10083900F054605280F487F009E208B5F048604648
:1008490080F488828C8387F009E0A3B5F03860369C
:1008590080F488828C8387F009E493A3B5F027603C
:100869002580F388828C83E3F5F009E0A3B5F016BF
:10087900601480F388828C83E3F5F009E493A3B5CF
:10088900F004600280F2020944808580E7808E804E
:10089900D2803C8015806C807E809B80B5808B8067
:1008A900A1804F8070803A02095089828A83ECFACC
:1008B900E493F5F0A3C8C582C8CCC583CCE493A35F
:1008C900C8C582C8CCC583CCB5F070606E80E1899B
:1008D900828A83E493F5F0A3E208B5F05E605C8058
:1008E900F289828A83E0F5F0A3E608B5F04D604B02
:1008F90080F389828A83E0F5F0A3E208B5F03C60D1
:100909003A80F389828A83E493F5F0A3E608B5F087
:100919002A602880F2805389828A83ECFAE493F56D
:10092900F0A3C8C582C8CCC583CCE0A3C8C582C81A
:10093900CCC583CCB5F004600280E27FFFB5F0023C
:100949000F2240027F012289828A83ECFAE0F5F0C6
:10095900A3C8C582C8CCC583CCE0A3C8C582C8CC0E
:10096900C583CCB5F0D560D380E389828A83ECFA5C
:10097900E0F5F0A3C8C582C8CCC583CCE493A3C86D
:10098900C582C8CCC583CCB5F0B160AF80E288F030
:10099900ED2402B4040050A3F582EB2402B4040050
:0B09A90050992323458223900892738D
:00000001FF
