:03000000020800F3
:0C080000787FE4F6D8FD758117020847E8
:080A5A000214000A0216000A52
:030A2C00E4FFFEE6
:100A2F00EF4E7026FDFCE4FBFAC3EB9517E5166459
:100A3F0080F8EA64809850070BBB00010A80EA0D2A
:0A0A4F00BD00010CBC01DFBDF4DCAA
:010A5900227A
:040973008E0E8F0F46
:10097700900001D3E582950FE50E6480F8E5836466
:1009870080985040E4F510F51175B001120A2C75E6
:10099700B002120A2F75B004120A2F75B008120A96
:1009A7002F75B010120A2F0511E51170020510D32B
:1009B700940AE5106480948040CFAF82E5132FF549
:1009C700A0A380AFE50F2513F513E50E3512F51239
:0409D700AE0EAF0FA2
:0109DB0022F9
:040903008E0E8F0FB6
:10090700900001D3E582950FE50E6480F8E58364D6
:1009170080985046E4F510F511D3E5119515E514C7
:100927006480F8E510648098502575B010120A2C81
:1009370075B00875B004120A2F75B002120A2F7528
:10094700B001120A2F0511E51170CE051080CAAF4C
:1009570082C3E5139FF5A0A380A9C3E513950FF5FF
:0B09670013E512950EF512AE0EAF0F57
:010972002262
:0409DC008E0A8F0BE5
:1009E000D3E50B9513E5126480F8E50A648098401E
:1009F00012E50B9513F50DE50A9512F50CAF0DFEFA
:100A0000120973C3E50B9513E5126480F8E50A64D7
:100A100080985013C3E513950BF50DE512950AF573
:0B0A20000CAF0DFE120903AE0AAF0B75
:010A2B0022A8
:10088C00E4F512F5138513A0E580B4020D7508008C
:10089C007509017F017E001209DCE580B4040D7539
:1008AC0008007509027F027E001209DCE580B4089D
:1008BC000D7508007509037F037E001209DCE580C5
:1008CC00B41011750800750904E4FFFE120A2F7F9D
:1008DC00041209DCE580B4200D7508007509057F4C
:1008EC00057E001209DCE5806401709CF508F509B1
:0708FC00FFFE1209DC8091F0
:10080C0002088CE493A3F8E493A34003F68001F26E
:10081C0008DFF48029E493A3F85407240CC8C333ED
:10082C00C4540F4420C8834004F456800146F6DFBC
:10083C00E4800B0102040810204080900A5AE47EE8
:10084C00019360BCA3FF543F30E509541FFEE493B1
:10085C00A360010ECF54C025E060A840B8E493A378
:10086C00FAE493A3F8E493A3C8C582C8CAC583CAA3
:10087C00F0A3C8C582C8CAC583CADFE9DEE780BE5B
:010A62000093
:00000001FF
