:1000000075B000C2B0C2B120B06920B16331FF74D5
:100010004E31E1744531E1745831E1745431E17489
:100020002031E1745331E1745431E1744F31E174A2
:100030005031E174C031F0744B31E1744B31E174F3
:100040004431E1742031E1744131E1745431E1749F
:100050002031E1743131E1743231E1743A31E174CB
:100060003331E1743031E15114C2B0C2B102000346
:100070000200E431FFC2B0C2B120B165745331E176
:10008000745431E1744131E1745931E1745331E117
:10009000742031E1745531E1745031E1745431E12F
:1000A000744F31E174C031F0743131E1743231E1B7
:1000B000743A31E1743331E1743231E1742031E169
:1000C000744131E1745431E1742031E1744B31E118
:1000D000744B31E1744431E15114C2B0C2B1020039
:1000E0000302016231FFC2B0C2B120B0F4744431E6
:1000F000E1744531E1744C31E1744131E1745931BD
:10010000E1742031E1744431E1745531E1744531D9
:10011000E1742031E1745431E1744F31E174C03144
:10012000F0745431E1745231E1744131E174493178
:03013000E1744E29
:1001330031E1742031E1744331E1745231E1744FA0
:1001430031E1745331E1745331E1744931E1744E57
:1001530031E1744731E15114C2B0C2B1020003313D
:10016300FFC2B0C2B1744431E1744531E1744C3122
:10017300E1744131E1745931E1742031E174443166
:10018300E1745531E1744531E1742031E174543146
:10019300E1744F31E174C031F0745431E17445318D
:1001A300E1744331E1744831E1744E31E174493112
:1001B300E1744331E1744131E1744C31E174203134
:1001C300E1744531E1745231E1745231E1744F31DC
:1001D300E1745231E15114C2B0C2B1020003F5908F
:1001E300D2A0C2A1D2A2512EC2A2512522F590C201
:1001F300A0C2A1D2A2512EC2A2512522743831F03D
:10020300740E31F0740131F0740631F0748031F002
:1002130022780879FA7AFA7BFADAFEDBFED9F6D885
:10022300F2227BFA7CFFDCFEDBFA227B147CFFDC10
:04023300FEDBFA22D2
:00000001FF
