:10092300767A7920746F20726A7920706C617466AC
:100933006F726D0063726F737320646574656374A3
:100943006F7200706C6174666F726D3100706C61F0
:1009530074666F726D3200706C6174666F726D33A2
:0B09630000706C6174666F726D3400F0
:10080000750880E4F580F5A0F5B075088F1209BB76
:10081000AF081209ED7BFF7A0979231209987F321C
:100820007E001209721508E508D3948050DF30B7B6
:10083000D975088F1209BBAF081209ED7BFF7A0941
:1008400079371209987F327E001209721508E5087F
:10085000C3948050DF7F647E0012097230B02ED2C4
:10086000A475088F1209BBAF081209ED7BFF7A0946
:10087000794612099812096E1508E508C39480504C
:10088000E37F2C7E01120972C2A402080A30B12E45
:10089000D2A575088F1209BBAF081209ED7BFF7A4C
:1008A00009795012099812096E1508E508C3948059
:1008B00050E37F2C7E01120972C2A502080A30B2F1
:1008C0002ED2A675088F1209BBAF081209ED7BFF67
:1008D0007A09795A12099812096E1508E508C39425
:1008E0008050E37F2C7E01120972C2A602080A2002
:1008F000B30302085CD2A775088F1209BBAF0812B8
:1009000009ED7BFF7A09796412099812096E1508BE
:10091000E508C3948050E37F2C7E01120972C2A7C0
:0309200002080AC0
:1009BB007F381209ED7F0E1209ED7F011209ED7FD1
:0909CB00061209ED7F800209ED1E
:1009ED008F80C2A0C2A1D2A27F017E00120972C265
:0209FD00A22234
:1009FF008F80D2A0C2A1D2A27F017E00120972C243
:020A0F00A22221
:100998008B098A0A890BAB09AA0AA90B1209D4FF89
:1009A80060101209FF7401250BF50BE4350AF50AEE
:0309B80080E422B6
:04096E007FC87E00C0
:10097200E4FDFCC3ED9FEE6480F8EC6480985015B2
:10098200E4FBFA0BBB00010AEB64714A70F50DBD82
:0509920000010C80DEF5
:01099700223D
:03000000020A11E0
:0C0A1100787FE4F6D8FD75810B02080028
:1009D400BB010689828A83E0225002E722BBFE0221
:0909E400E32289828A83E4932254
:00000001FF
