:030000000210E308
:0C10E300787FE4F6D8FD75816902112ABF
:100EFE0031323334352041444954594120455850FC
:100F0E0000524A592D56535000504E5220424153D2
:100F1E004544005053472056455249464943415493
:100F2E00494F4E00454E54455220504E52204E4F82
:100F3E003A00594F555220504E52204E4F2E206996
:100F4E00733A003232413931413034483030320058
:100F5E002041747474656E64656400502E5341496B
:100F6E00204455524741004174746E642E204E6FDA
:100F7E002E3A200025640032334139354130343267
:100F8E003530340020417474656E646564004841E8
:100F9E0052492048454D414E54480032334139356F
:100FAE004130343035303100522E414A4159204BB8
:100FBE004952414E003232503331413034303930A3
:100FCE003100414248495348454B0032325033318B
:100FDE0041303432393031004E2E50524959414E43
:100FEE004B410032325033314130343133303100E5
:100FFE00472E4E49484152494B410032325033310F
:10100E004130343436303100542E41524A554E0060
:10101E00323250333141303432313031004B2E5375
:10102E005552594100504E52204E4F54204D41546E
:10103E004348454400524541434820544F20522FC7
:07104E0059204445505400F5
:0312E300013600D1
:1011DE00D2A4C2A37F2C7E011211F0C2A4C2A37F9F
:0211EE00C81E19
:1011F000E4FDFCC3ED9FEE6480F8EC64809850152C
:10120000E4FBFA0BBB00010ABA04F8BBFBF50DBD09
:0512100000010C80DE6E
:0112150022B6
:1012AE00D290C291D2927F057E001211F0C292228C
:10129B00A907E954F0F5901212AEE9C454F0F59099
:0312AB000212AE7E
:0E12BE00C290D2927F057E001211F0C29222E1
:09126B007FC87E001211F07F0122
:10127400A907E954F0F5901212BEE9C454F0F590B0
:031284000212BE95
:0B1216007FC01212747BFF7A0F797505
:101221008B088A09890AAB08AA09A90A121055FF75
:10123100601012129B7401250AF50AE43509F509BB
:0312410080E42224
:101287007F021212747F281212747F0E1212747F5B
:0412970001021274CA
:0C12CC00758920759850758DFDD28E221A
:0B12D8003098FD859936C298AF362291
:10080000D2A61212CC1212877BFF7A0E79FE121238
:10081000217FC01212747BFF7A0F790F1212217F91
:10082000F47E011211F01212877BFF7A0F791712F2
:1008300012217FC01212747BFF7A0F7921121221CC
:100840007F907E011211F07F011212747BFF7A0FEC
:1008500079321212217FC0121274E4F569F569121F
:1008600012D874232569F8A6070569C3E569648071
:10087000948C40EB74232569F8E4F67F011212741E
:100880007BFF7A0F79401212217FC0121274E4F5B7
:100890006974232569F8E6FF12129B0569C3E569AF
:1008A0006480948C40EB7F647E001211F0750BFF26
:1008B000750C0F750D51750E00750F0C7B007A00CD
:1008C000792312116FEF70500531E5317002053058
:1008D0007F011212747BFF7A0F795E1212211212BD
:1008E0006B7BFF7A0F7969121221121216750BFFBA
:1008F000750C0F750D8285300E85310F7B007A00E7
:100900007922120BFE7B007A007922121221121139
:10091000DEC2A4D2A3020847750BFF750C0F750D3C
:1009200085750E00750F0C7B007A00792312116F0C
:10093000EF70370533E533700205327F0112127410
:100940007BFF7A0F799212122112126B7BFF7A0FC2
:10095000799C121221121216750BFF750C0F750D72
:100960008285320E85330F020B52750BFF750C0F0B
:10097000750DA9750E00750F0C7B007A0079231296
:10098000116FEF70370535E535700205347F0112C0
:1009900012747BFF7A0F799212122112126B7BFF75
:1009A0007A0F79B6121221121216750BFF750C0F01
:1009B000750D8285340E85350F020B52750BFF7550
:1009C0000C0F750DC3750E00750F0C7B007A007946
:1009D0002312116FEF70370535E535700205347F4E
:1009E000011212747BFF7A0F799212122112126B8C
:1009F0007BFF7A0F79D0121221121216750BFF7538
:100A00000C0F750D8285340E85350F020B52750B58
:100A1000FF750C0F750DD9750E00750F0C7B007AE4
:100A200000792312116FEF70370535E53570020537
:100A3000347F011212747BFF7A0F79921212211205
:100A4000126B7BFF7A0F79E6121221121216750BC8
:100A5000FF750C0F750D8285340E85350F020B5214
:100A6000750BFF750C0F750DF1750E00750F0C7B76
:100A7000007A00792312116FEF70370535E5357074
:100A80000205347F011212747BFF7A0F79921212E1
:100A90002112126B7BFF7A0F79FE121221121216AD
:100AA000750BFF750C0F750D8285340E85350F02A1
:100AB0000B52750BFF750C10750D09750E00750F37
:100AC0000C7B007A00792312116FEF70360535E543
:100AD00035700205347F011212747BFF7A0F799210
:100AE00012122112126B7BFF7A1079161212211248
:100AF0001216750BFF750C0F750D8285340E85353A
:100B00000F804F750BFF750C10750D1E750E00755F
:100B10000F0C7B007A00792312116FEF705A0535A4
:100B2000E535700205347F011212747BFF7A0F796C
:100B30009212122112126B7BFF7A10792B12122162
:100B4000121216750BFF750C0F750D8285340E850C
:100B5000350F7B007A007922120BFE7B007A007938
:100B6000221212211211DEC2A4D2A37F2C0E121166
:100B7000F0C2A4C2A30208477F011212747BFF7A5D
:100B80001079331212217FC01212747BFF7A107910
:100B900043121221C2A67F2C7E011211F0D2A602AE
:020BA000084704
:1010EF00020800E493A3F8E493A34003F68001F20F
:1010FF0008DFF48029E493A3F85407240CC8C33302
:10110F00C4540F4420C8834004F456800146F6DFD0
:10111F00E4800B01020408102040809012E3E47E6B
:10112F00019360BCA3FF543F30E509541FFEE493C5
:10113F00A360010ECF54C025E060A840B8E493A38C
:10114F00FAE493A3F8E493A3C8C582C8CAC583CAB7
:10115F00F0A3C8C582C8CAC583CADFE9DEE780BE6F
:0112E6000007
:10105500BB010689828A83E0225002E722BBFE0299
:09106500E32289828A83E49322CC
:100BA200E517240BF8E60517227808300702780BC0
:100BB200E475F0011210AD0210552000EB7F2ED229
:100BC200008018EF540F2490D43440D4FF30040B2B
:100BD200EF24BFB41A0050032461FFE51860021528
:100BE20018051BE51B7002051A30070D7808E4751D
:100BF200F0011210ADEF02109B0212447403D207EF
:100C02008003E4C207F5178B088A09890AE4F518FC
:100C1200F51AF51BE51860077F20120BDD80F575CC
:100C220019FFC201C200C202C203C205C206C20843
:100C3200120BABFF700D3007057F00120BEEAF1BDE
:100C4200AE1A22B4255FC2D5C204120BABFF24D068
:100C5200B40A00501A75F00A781830D50508B6FFA4
:100C62000106C6A426F620D5047002D20380D92438
:100C7200CFB41A00EF5004C2E5D204020DEED20145
:100C820080C6D20080C0D20280BCD2D580BAD20542
:100C920080B47F20120BDD2002077401B5180040DA
:100CA200F1120BA2FF120BDD020C16D208D2068043
:100CB20095120BA2FB120BA2FA120BA2F94A4B706D
:100CC2000679BF7A0E7BFF20022EE518602A7E008D
:100CD2008E8275830012106E60060EEE651970F03A
:100CE200C2D5EBC0E0EAC0E0E9C0E0EE120E35D0BA
:100CF200E0F9D0E0FAD0E0FB121055FF60AAEBC099
:100D0200E0EAC0E0E9C0E0120BDDD0E02401F9D056
:100D1200E03400FAD0E0FBE5190460DCD519D98093
:100D2200877BFF7A0E7931D202809C79108002791A
:100D320008C206C2088008D2D5790A8004790AC29C
:100D4200D5E519047002F519E4FAFDFEFF120BA2B3
:100D5200FC7B08200113120BA2FD7B1030000A124B
:100D62000BA2FE120BA2FF7B20EC3382D592D55050
:100D720013C3E43000069FFFE49EFEE42001039DBE
:100D8200FDE49CFCE4CBF8C201EC700CCFCECDCCE0
:100D9200E824F8F870F38017C3EF33FFEE33FEED6B
:100DA20033FDEC33FCEB33FB994002FB0FD8E9EB4C
:100DB200300105F8D0E0C448B201C0E00AEC4D4E63
:100DC2004F78207B0070C2EAB5190040BCC0E01227
:100DD2000E37D0F0D0E0200104C4C0E0C4B201C09C
:100DE200F0120BC6D0F0D5F0EB020C161210BD0CAF
:100DF200B3530D2D580C844C0C80420D314F0D39DC
:0F0E0200440D39490C99430D3F550D23460D23DF
:100E1100450D23470EDF500C882D0C8C2E0CAF2B6B
:100E21000C90230CAD200EC82A0C484800000CA7DA
:100E31003F3F3F00790AA2D5200314300509B910BC
:100E4100020404B9080104A2D520060250010420BD
:100E510002689202B518005034C0E07F20300319B7
:100E61007F30A20272067205500F120E8EC202C2AC
:100E710006C205C2087F30800F300503E9C0E012C9
:100E81000BDD300503D0E0F9D0E0B518CC30051703
:100E91007F30B9100C120BDD7F583004077F78804A
:100EA10003B90803120BDD3002057F2D020BDD7F34
:100EB100202008F87F2B2006F322920280CF286E93
:100EC100756C6C2900D201120BA23001F8C20178B5
:100ED1001830D50108F6020C482D50434958120B21
:100EE100A22403B405004001E4900EDA93120BCE64
:0D0EF100743A120BCED203751804020D2DB9
:10116F008B088A09890AAB0BAA0CA90D121055FE20
:10117F00AB08AA09A90A121055FF6E702BEF600D6C
:10118F00E50F150F7002150E14450E70037F002228
:10119F007401250AF50AE43509F5097401250DF5E1
:1011AF000DE4350CF50C80BEAB08AA09A90A121084
:1011BF0055FDD3EE6480F8ED64809840037F0122E3
:0F11CF00AB0BAA0CA90D121055FFC3ED9FFF2209
:10106E00BB010CE58229F582E5833AF583E0225037
:10107E0006E92582F8E622BBFE06E92582F8E22281
:0D108E00E58229F582E5833AF583E493229B
:10109B00BB010689828A83F0225002F722BBFE0134
:0210AB00F3222E
:1010AD00FAE6FB0808E6F925F0F618E6CA3AF62244
:1010BD00D083D082F8E4937012740193700DA3A3C2
:1010CD0093F8740193F5828883E4737402936860D6
:0610DD00EFA3A3A380DFD6
:10124400EFB40A07740D12124F740A309811A8995A
:10125400B8130CC2983098FDA899C298B811F6300A
:0712640099FDC299F59922E2
:00000001FF
