:1000000075B0FF7580FF75B0FF7580FF30B72D307C
:10001000B63330B53330B43330B33330B23330B1BC
:100020003330B033308733308633308533308433E8
:1000300030833330823330813330803391EDB125DA
:10004000B10202000C0200720200B70201040201B8
:100050004902019E0201EB02022C0202790202BA5D
:100060000203070203640203A90203EE02043B0237
:10007000048491ED745791CF744191CF744991CF1D
:10008000745491CF744991CF744E91CF744791CFEE
:10009000742091CF744891CF744191CF744C91CF1B
:1000A000744C91CF74C091DEB18EB1CB743191CFCD
:1000B000D102B10202000C91ED744591CF744E91C2
:1000C000CF745191CF745591CF744991CF7452919F
:1000D000CF745991CF742091CF744F91CF744691C2
:1000E000CF744691CF744991CF744391CF744591A9
:1000F000CF74C091DEB18EB1CB743291CFD102B149
:100100000202000C91ED744C91CF745591CF74475D
:1001100091CF744791CF744191CF744791CF74457B
:1001200091CF742091CF745291CF744F91CF744F6F
:1001300091CF744D91CF74C091DEB18EB1CB743339
:1001400091CFD102B10202000C91ED744691CF74AF
:010150004965
:1001510091CF745291CF745391CF745491CF744114
:1001610091CF744991CF744491CF742091CF74533E
:1001710091CF744591CF745291CF745691CF7449F8
:1001810091CF744391CF744591CF74C091DEB18EFC
:10019100B1CB743491CFD102B10202000C91ED7454
:1001A1004491CF745291CF744991CF744E91CF74D1
:1001B1004B91CF744991CF744E91CF744791CF74C5
:1001C1002091CF745791CF744191CF745491CF74D2
:1001D1004591CF745291CF74C091DEB18EB1CB7481
:1001E1003591CFD102B10202000C91ED742091CF73
:1001F100742091CF742091CF745791CF744191CFD6
:10020100745391CF744891CF745291CF744F91CF61
:10021100744F91CF744D91CF74C091DEB18EB1CB3B
:10022100743691CFD102B10202000C91ED74549158
:10023100CF744991CF744391CF744B91CF74459151
:10024100CF745491CF742091CF744391CF744F9157
:10025100CF745591CF744E91CF745491CF74459111
:10026100CF745291CF74C091DEB18EB1CB743791FE
:10027100CFD102B10202000C91ED745791CF7441BC
:1002810091CF745991CF742091CF745491CF744F01
:1002910091CF742091CF745091CF744691CF742037
:1002A10091CF743291CF74C091DEB18EB1CB7438DD
:1002B10091CFD102B10202000C91ED744391CF7440
:1002C1004F91CF744D91CF745091CF744C91CF74A5
:1002D1004991CF744191CF744E91CF745491CF74A1
:1002E1002091CF745291CF744F91CF744F91CF74AD
:1002F1004D91CF74C091DEB18EB1CB743991CFD114
:1003010002B10202000C91ED744591CF744D91CF71
:10031100744591CF745291CF744791CF744591CF69
:10032100744E91CF744391CF745991CF742091CF72
:10033100745391CF744591CF745291CF745691CF2C
:10034100744991CF744391CF744591CF74C091DEBC
:10035100B18EB1CB743191CF744F91CFD102B10233
:1003610002000C91ED742091CF742091CF742091F3
:10037100CF744591CF745391CF744391CF744C9105
:10038100CF744191CF745491CF744F91CF745291E6
:10039100CF74C091DEB18EB1CB743191CF743191F4
:1003A100CFD102B10202000C91ED744191CF74548E
:1003B10091CF744D91CF742091CF745391CF7445E7
:1003C10091CF745291CF745691CF744991CF7443A8
:1003D10091CF744591CF74C091DEB18EB1CB7431A0
:1003E10091CF743291CFD102B10202000C91ED7420
:1003F1004D91CF744191CF744991CF744C91CF7489
:100401002091CF745391CF744591CF745291CF7491
:100411005691CF744991CF744391CF744591CF7464
:100421005391CF74C091DEB18EB1CB743191CF7441
:100431003391CFD102B10202000C91ED744C91CFF6
:10044100744991CF744691CF745491CF742091CF58
:10045100742691CF742091CF745391CF745491CF5E
:10046100744591CF745091CF745391CF74C091DE84
:10047100B18EB1CB743191CF743491CFD102B1022D
:1004810002000C745291CF744591CF745691CF7480
:100491004991CF744591CF745791CF742091CF7406
:1004A1004F91CF744691CF744691CF744991CF74D7
:1004B1004391CF744591CF74C091DEB18EB1CB74AD
:1004C1003191CF743591CFD102B10202000CF59078
:0F04D100D2A0C2A1D2A2B11CC2A2B11322F59037
:1004E000C2A0C2A1D2A2B11CC2A2B113227438917F
:1004F000DE740E91DE740191DE740691DE748091DB
:10050000DE22780C79FA7AFA7BFADAFEDBFED9F68B
:10051000D8F2227BFA7CFFDCFEDBFA227B147CFF24
:10052000DCFEDBFA22745791CF744591CF744C9165
:10053000CF744391CF744F91CF744D91CF74459147
:10054000CF742091CF745491CF744F91CF74C091D8
:10055000DE745391CF744C91CF744F91CF7420912E
:10056000CF745291CF744C91CF745991CF74209124
:10057000CF745391CF745491CF744191CF745491EF
:10058000CF744991CF744F91CF744E91CF2274495B
:1005900091CF745391CF742091CF744C91CF744FFD
:1005A00091CF744391CF744191CF745491CF7445DE
:1005B00091CF744491CF742091CF744E91CF7445F4
:1005C00091CF744191CF745291CF2291ED742091CB
:1005D000CF744191CF745491CF742091CF745091C6
:1005E000CF744C91CF744C91CF744191CF74529190
:1005F000CF742091CF744E91CF744F91CF742091CE
:04060000CF2274C0D1
:1006040091DE742091CF742091CF742091CF7454D3
:1006140091CF744891CF744191CF744E91CF744B64
:1006240091CF742091CF745991CF744F91CF745559
:0706340091CF742091CF2249
:00000001FF
