:1000000075B00020B00302008F31B87431319A749A
:1000100032319A7433319A7434319A7435319A7416
:1000200020319A7441319A7444319A7449319A74E6
:1000300054319A7459319A7441319A7420319A74B6
:1000400045319A7458319A7450319A74C031A974F8
:1000500041319A7452319A7452319A7449319A7476
:1000600056319A7449319A744E319A7447319A7460
:1000700020319A744F319A744E319A7420319A74A7
:1000800050319A7446319A7435319A31CDC2B020CC
:10009000B10302000331B87431319A7432319A7469
:1000A00033319A7434319A7435319A7420319A7498
:1000B00041319A7444319A7449319A7454319A7422
:1000C00059319A7441319A7420319A7445319A7435
:1000D00058319A7450319A74C031A97420319A748D
:1000E00049319A7453319A7420319A744F319A7409
:1000F0004E319A7420319A7450319A7446319A7400
:1001000035319A31CDC2B120B20302008F31B874BB
:1001100031319A7432319A7433319A7434319A7419
:1001200035319A7420319A7441319A7444319A74F9
:010130004985
:10013100319A7454319A7459319A7441319A7420B4
:10014100319A7445319A7458319A7450319A74C005
:1001510031A97452319A7444319A7459319A742084
:10016100319A7454319A744F319A7420319A744C83
:10017100319A7445319A7441319A7456319A744561
:10018100319A7420319A7450319A7446319A743587
:10019100319A31CDC2B2020003F590D2A0C2A1D2F0
:1001A100A231E7C2A231DE22F590C2A0C2A1D2A241
:1001B10031E7C2A231DE22743831A9740E31A9743B
:1001C1000131A9740631A9748031A922781479FA10
:1001D1007AFA7BFADAFEDBFED9F6D8F2227BFA7CD8
:0F01E100FFDCFEDBFA227B107CFFDCFEDBFA2268
:00000001FF
