:03000000020800F3
:0C080000787FE4F6D8FD75810702000047
:1000000075B0FF7580FF75B0FF7580FF30B72D307C
:10001000B63330B53330B43330B33330B23330B1BC
:100020003330B033308733308633308533308433E8
:1000300030833330823330813330803391EFB127D6
:10004000B10402000C0200720200B70201040201B6
:100050004902019E0201EB02022C0202790202BA5D
:100060000203070203640203A90203EE02043B0237
:10007000048491EF745791D1744191D1744991D115
:10008000745491D1744991D1744E91D1744791D1E6
:10009000742091D1744891D1744191D1744C91D113
:1000A000744C91D174C091E0B190B1CD743191D1C3
:1000B000D108B10402000C91EF744591D1744E91B6
:1000C000D1745191D1745591D1744991D174529197
:1000D000D1745991D1742091D1744F91D1744691BA
:1000E000D1744691D1744991D1744391D1744591A1
:1000F000D174C091E0B190B1CD743291D1D108B139
:100100000402000C91EF744C91D1745591D1744755
:1001100091D1744791D1744191D1744791D1744573
:1001200091D1742091D1745291D1744F91D1744F67
:1001300091D1744D91D174C091E0B190B1CD74332F
:1001400091D1D108B10402000C91EF744691D174A1
:010150004965
:1001510091D1745291D1745391D1745491D174410C
:1001610091D1744991D1744491D1742091D1745336
:1001710091D1744591D1745291D1745691D17449F0
:1001810091D1744391D1744591D174C091E0B190F2
:10019100B1CD743491D1D108B10402000C91EF7446
:1001A1004491D1745291D1744991D1744E91D174C9
:1001B1004B91D1744991D1744E91D1744791D174BD
:1001C1002091D1745791D1744191D1745491D174CA
:1001D1004591D1745291D174C091E0B190B1CD7477
:1001E1003591D1D108B10402000C91EF742091D165
:1001F100742091D1742091D1745791D1744191D1CE
:10020100745391D1744891D1745291D1744F91D159
:10021100744F91D1744D91D174C091E0B190B1CD31
:10022100743691D1D108B10402000C91EF7454914C
:10023100D1744991D1744391D1744B91D174459149
:10024100D1745491D1742091D1744391D1744F914F
:10025100D1745591D1744E91D1745491D174459109
:10026100D1745291D174C091E0B190B1CD743791F4
:10027100D1D108B10402000C91EF745791D17441AE
:1002810091D1745991D1742091D1745491D1744FF9
:1002910091D1742091D1745091D1744691D174202F
:1002A10091D1743291D174C091E0B190B1CD7438D3
:1002B10091D1D108B10402000C91EF744391D17432
:1002C1004F91D1744D91D1745091D1744C91D1749D
:1002D1004991D1744191D1744E91D1745491D17499
:1002E1002091D1745291D1744F91D1744F91D174A5
:1002F1004D91D174C091E0B190B1CD743991D1D10A
:1003010008B10402000C91EF744591D1744D91D163
:10031100744591D1745291D1744791D1744591D161
:10032100744E91D1744391D1745991D1742091D16A
:10033100745391D1744591D1745291D1745691D124
:10034100744991D1744391D1744591D174C091E0B4
:10035100B190B1CD743191D1744F91D1D108B10423
:1003610002000C91EF742091D1742091D1742091ED
:10037100D1744591D1745391D1744391D1744C91FD
:10038100D1744191D1745491D1744F91D1745291DE
:10039100D174C091E0B190B1CD743191D1743191EA
:1003A100D1D108B10402000C91EF744191D1745480
:1003B10091D1744D91D1742091D1745391D17445DF
:1003C10091D1745291D1745691D1744991D17443A0
:1003D10091D1744591D174C091E0B190B1CD743196
:1003E10091D1743291D1D108B10402000C91EF7412
:1003F1004D91D1744191D1744991D1744C91D17481
:100401002091D1745391D1744591D1745291D17489
:100411005691D1744991D1744391D1744591D1745C
:100421005391D174C091E0B190B1CD743191D17437
:100431003391D1D108B10402000C91EF744C91D1E8
:10044100744991D1744691D1745491D1742091D150
:10045100742691D1742091D1745391D1745491D156
:10046100744591D1745091D1745391D174C091E07C
:10047100B190B1CD743191D1743491D1D108B1041D
:1004810002000C91EF745291D1744591D17456913F
:10049100D1744991D1744591D1745791D1742091FE
:1004A100D1744F91D1744691D1744691D1744991CF
:1004B100D1744391D1744591D174C091E0B190B19F
:1004C100CD743191D1743591D1D108B10402000CB0
:0F04D100F590D2A0C2A1D2A2B11EC2A2B1152233
:1004E000F590C2A0C2A1D2A2B11EC2A2B1152274BF
:1004F0003891E0740E91E0740191E0740691E0741B
:100500008091E022780C79FA7AFA7BFADAFEDBFE47
:10051000D9F6D8F2227BFA7CFFDCFEDBFA227B14D0
:100520007CFFDCFEDBFA22745791D1744591D174C3
:100530004C91D1744391D1744F91D1744D91D17438
:100540004591D1742091D1745491D1744F91D1744B
:10055000C091E0745391D1744C91D1744F91D17486
:100560002091D1745291D1744C91D1745991D1741C
:100570002091D1745391D1745491D1744191D1741B
:100580005491D1744991D1744F91D1744E91D1222B
:10059000744991D1745391D1742091D1744C91D1FB
:1005A000744F91D1744391D1744191D1745491D1CC
:1005B000744591D1744491D1742091D1744E91D1EC
:1005C000744591D1744191D1745291D12291EF74BB
:1005D0002091D1744191D1745491D1742091D174EE
:1005E0005091D1744991D1744C91D1744C91D17482
:1005F0004191D1745291D1742091D1744E91D174A2
:050600004F91D17420B0
:1006050091D12274C091E0742091D1742091D1745C
:100615002091D1745491D1744891D1744191D17480
:100625004E91D1744B91D1742091D1745991D1745B
:0C0635004F91D1745591D1742091D122C5
:00000001FF
